{
  "contractName": "CrowdfundProject",
  "abi": [
    {
      "constant": true,
      "inputs": [],
      "name": "deadline",
      "outputs": [
        {
          "name": "",
          "type": "uint256"
        }
      ],
      "payable": false,
      "stateMutability": "view",
      "type": "function"
    },
    {
      "constant": true,
      "inputs": [],
      "name": "goal",
      "outputs": [
        {
          "name": "",
          "type": "uint256"
        }
      ],
      "payable": false,
      "stateMutability": "view",
      "type": "function"
    },
    {
      "constant": true,
      "inputs": [
        {
          "name": "",
          "type": "address"
        }
      ],
      "name": "backers",
      "outputs": [
        {
          "name": "",
          "type": "uint256"
        }
      ],
      "payable": false,
      "stateMutability": "view",
      "type": "function"
    },
    {
      "constant": true,
      "inputs": [],
      "name": "raised",
      "outputs": [
        {
          "name": "",
          "type": "uint256"
        }
      ],
      "payable": false,
      "stateMutability": "view",
      "type": "function"
    },
    {
      "inputs": [
        {
          "name": "goalInEthers",
          "type": "uint256"
        },
        {
          "name": "durationInDays",
          "type": "uint256"
        }
      ],
      "payable": false,
      "stateMutability": "nonpayable",
      "type": "constructor"
    },
    {
      "payable": true,
      "stateMutability": "payable",
      "type": "fallback"
    },
    {
      "anonymous": false,
      "inputs": [
        {
          "indexed": false,
          "name": "from",
          "type": "address"
        },
        {
          "indexed": false,
          "name": "amount",
          "type": "uint256"
        },
        {
          "indexed": false,
          "name": "time",
          "type": "uint256"
        }
      ],
      "name": "BackerContributed",
      "type": "event"
    },
    {
      "constant": true,
      "inputs": [],
      "name": "isOver",
      "outputs": [
        {
          "name": "",
          "type": "bool"
        }
      ],
      "payable": false,
      "stateMutability": "view",
      "type": "function"
    },
    {
      "constant": true,
      "inputs": [],
      "name": "isFunded",
      "outputs": [
        {
          "name": "",
          "type": "bool"
        }
      ],
      "payable": false,
      "stateMutability": "view",
      "type": "function"
    }
  ],
  "bytecode": "0x608060405234801561001057600080fd5b506040516040806103938339810180604052810190808051906020019092919080519060200190929190505050670de0b6b3a7640000820260018190555062015180810242016002819055506000600381905550505061031e806100756000396000f300608060405260043610610078576000357c0100000000000000000000000000000000000000000000000000000000900463ffffffff16806329dcb0cf1461017757806340193883146101a25780637c654303146101cd578063b4bd9e27146101fc578063b85dfb801461022b578063f0ea4bfc14610282575b6000804260025411151561008b57600080fd5b6001546003541015151561009e57600080fd5b349150339050816000808373ffffffffffffffffffffffffffffffffffffffff1673ffffffffffffffffffffffffffffffffffffffff16815260200190815260200160002060008282540192505081905550816003600082825401925050819055507f4ac114085cd02824cf1baa02c89004ff9fd78e22a2925d9431057c40e221094e818342604051808473ffffffffffffffffffffffffffffffffffffffff1673ffffffffffffffffffffffffffffffffffffffff168152602001838152602001828152602001935050505060405180910390a15050005b34801561018357600080fd5b5061018c6102ad565b6040518082815260200191505060405180910390f35b3480156101ae57600080fd5b506101b76102b3565b6040518082815260200191505060405180910390f35b3480156101d957600080fd5b506101e26102b9565b604051808215151515815260200191505060405180910390f35b34801561020857600080fd5b506102116102c8565b604051808215151515815260200191505060405180910390f35b34801561023757600080fd5b5061026c600480360381019080803573ffffffffffffffffffffffffffffffffffffffff1690602001909291905050506102d4565b6040518082815260200191505060405180910390f35b34801561028e57600080fd5b506102976102ec565b6040518082815260200191505060405180910390f35b60025481565b60015481565b60006001546003541015905090565b60004260025410905090565b60006020528060005260406000206000915090505481565b600354815600a165627a7a72305820dd4ebe1e66bca32caea34328b8e422bd867b76c1b47bd2bfbf93ea1b87ceaebd0029",
  "source": "\npragma solidity ^0.4.16;\n\ncontract CrowdfundProject {\n\tmapping(address => uint256) public backers;\n\tuint public goal;\n\tuint public deadline;\n    uint public raised;\n\n    event BackerContributed(address from, uint amount, uint time);\n\n    constructor(\n        uint goalInEthers,\n        uint durationInDays\n    ) public {\n        goal = goalInEthers * 1 ether;\n        deadline = now + (durationInDays * 1 days);\n        raised = 0;\n    }\n\n    modifier stillRunning() {\n        require(deadline > now);\n        require(raised >= goal);\n        _;\n    }\n\n    function () public payable stillRunning\n    {\n        uint amount = msg.value;\n        address from = msg.sender;\n        backers[from] += amount;\n        raised += amount;\n\n        emit BackerContributed(from, amount, now);\n    }\n\n    // function refund() {}\n\n    function isOver() public view returns (bool) {\n        return deadline < now;\n    }\n\n    function isFunded() public view returns (bool) {\n        return raised >= goal;\n    }\n}\n\n\n// contract Crowdsale {\n//     address public beneficiary;\n//     uint public fundingGoal;\n//     uint public amountRaised;\n//     uint public deadline;\n//     uint public price;\n//     mapping(address => uint256) public balanceOf;\n//     bool fundingGoalReached = false;\n//     bool crowdsaleClosed = false;\n\n//     event GoalReached(address recipient, uint totalAmountRaised);\n//     event FundTransfer(address backer, uint amount, bool isContribution);\n\n//     /**\n//      * Constructor function\n//      *\n//      * Setup the owner\n//      */\n//     function Crowdsale(\n//         address ifSuccessfulSendTo,\n//         uint fundingGoalInEthers,\n//         uint durationInMinutes,\n//         uint etherCostOfEachToken,\n//         address addressOfTokenUsedAsReward\n//     ) {\n//         beneficiary = ifSuccessfulSendTo;\n//         fundingGoal = fundingGoalInEthers * 1 ether;\n//         deadline = now + durationInMinutes * 1 minutes;\n//         price = etherCostOfEachToken * 1 ether;\n//     }\n\n//     /**\n//      * Fallback function\n//      *\n//      * The function without name is the default function that is called whenever anyone sends funds to a contract\n//      */\n//     function () payable {\n//         require(!crowdsaleClosed);\n//         uint amount = msg.value;\n//         balanceOf[msg.sender] += amount;\n//         amountRaised += amount;\n// \t\treturn;\n//     }\n\n//     modifier afterDeadline() {\n// \t\tif (now >= deadline) _;\n// \t}\n\n//     /**\n//      * Check if goal was reached\n//      *\n//      * Checks if the goal or time limit has been reached and ends the campaign\n//      */\n//     function checkGoalReached() afterDeadline {\n//         if (amountRaised >= fundingGoal){\n//             fundingGoalReached = true;\n//             GoalReached(beneficiary, amountRaised);\n//         }\n//         crowdsaleClosed = true;\n//     }\n\n\n//     /**\n//      * Withdraw the funds\n//      *\n//      * Checks to see if goal or time limit has been reached, and if so, and the funding goal was reached,\n//      * sends the entire amount to the beneficiary. If goal was not reached, each contributor can withdraw\n//      * the amount they contributed.\n//      */\n//     function safeWithdrawal() afterDeadline {\n//         if (!fundingGoalReached) {\n//             uint amount = balanceOf[msg.sender];\n//             balanceOf[msg.sender] = 0;\n//             if (amount > 0) {\n//                 if (msg.sender.send(amount)) {\n//                     FundTransfer(msg.sender, amount, false);\n//                 } else {\n//                     balanceOf[msg.sender] = amount;\n//                 }\n//             }\n//         }\n\n//         if (fundingGoalReached && beneficiary == msg.sender) {\n//             if (beneficiary.send(amountRaised)) {\n//                 FundTransfer(beneficiary, amountRaised, false);\n//             } else {\n//                 //If we fail to send the funds to beneficiary, unlock funders balance\n//                 fundingGoalReached = false;\n//             }\n//         }\n//     }\n// }\n",
  "sourcePath": "/Users/liamz/Documents/Blockchain/crowdfund/contracts/CrowdfundProject.sol",
  "compiler": {
    "name": "solc",
    "version": "0.4.23+commit.124ca40d.Emscripten.clang"
  },
  "schemaVersion": "2.0.0",
  "updatedAt": "2018-04-29T00:33:16.740Z"
}